:020000040800F2
:10000000600A002035020008091D0008011D0008D3
:10001000051D0008411B00087728000800000000AB
:10002000000000000000000000000000CD220008D9
:10003000451B000800000000B5210008E12300086E
:100040004F0200084F0200084F0200084F0200084C
:100050004F0200084F0200084F0200084F0200083C
:100060004F0200084F0200084F0200084F0200082C
:100070004F0200084F0200084F0200084F0200081C
:100080004F0200084F0200084F0200084F0200080C
:100090004F0200084F0200084F0200084F020008FC
:1000A0004F0200084F0200084F0200084F020008EC
:1000B000452400084F0200084F0200084F020008C4
:1000C0004F0200084F0200084F0200084F020008CC
:1000D0004F020008992500084F0200082126000859
:1000E0004F0200084F0200084F02000800F002F81B
:1000F00000F090F80AA090E8000C82448344AAF132
:100100000107DA4501D100F085F8AFF2090EBAE82F
:100110000F0013F0010F18BFFB1A43F0010318473B
:10012000BC320000DC320000103A24BF78C878C12D
:10013000FAD8520724BF30C830C144BF04680C60ED
:10014000704700000023002400250026103A28BF35
:1001500078C1FBD8520728BF30C148BF0B60704739
:100160006E2900F02B82702900F08383662902F04B
:100170007D85652902F07A85672902F077856129F6
:1001800002F0768503681B0A28BF41F080016929C7
:1001900000F0D881642900F0D581752900F0D28162
:1001A0006F2900F01083782900F04F83E92900F0CF
:1001B000AB82E42900F0A882F52900F0A582EF299E
:1001C00000F00D83F82900F04E830368DB0928BF97
:1001D00041F08001632900F02C82732900F0318204
:1001E000E32900F08787F32900F08C87002070470F
:1001F0001FB500F0D9FF04000020002102F020FD0F
:10020000401C60600020002102F004FDE0601FBD82
:1002100010B510BD00F09AFF1146FFF7E9FF02F09C
:10022000A1FC01F077F803B4FFF7F2FF03BC02F082
:100230003FFB00000948804709480047FEE7FEE70A
:10024000FEE7FEE7FEE7FEE7FEE7FEE7FEE7FEE786
:1002500004480549054A064B70470000E52300089D
:10026000ED00000860040020600A00206006002005
:1002700060060020704700001CB50C46064B7B440E
:1002800069460090204600F0B2F904460020694615
:1002900000F0C0F920461CBD930300000FB41CB54C
:1002A000084B06AA7B4469460090059800F09FF928
:1002B00004460020694600F0ADF920461CBC5DF8FC
:1002C00014FB00006D03000070B50C460546012AC2
:1002D00005D02878800600D5EA69002302E00123D2
:1002E00005E05B1C934202D2E05C0028F9D1A869CA
:1002F000E618C01AA861286A18442862284600F047
:10030000E7F804E0D5E9012114F8010B9047B44265
:10031000F8D3284600F0F2F870BD00002DE9F05F38
:10032000894604464FF0000ADFF874B1FB44C0F878
:1003300020A02046E1688847002874D0252806D0F0
:10034000D4E901219047206A401C2062F1E7002691
:100350005F462046E16888472028054607DB312DA7
:1003600005D2781910F8200C08B10643F1E7B00760
:1003700001D526F00406C4F81CA00027C4F818A074
:100380002A2D09D0284602F08CFA38B304EB8708EE
:10039000303DC8F8185019E059F8041B204604EB0A
:1003A00087029161E1688847012F054618D1E0690D
:1003B000002820DA26F020061DE0D8F8180000EB0F
:1003C000800005EB40003038C8F818002046E1688E
:1003D0008847054602F065FA0028EED1012F0AD0C1
:1003E0002E2D08D12046E16888477F1C0546022F44
:1003F00046F02006C4DBA069002803DA404246F03C
:100400000106A061F00701D026F010066C2D0BD07C
:10041000682D09D04C2D39D06A2D35D0742D35D0AA
:100420007A2D33D016E038E0E1682F462046884721
:10043000B842054609D16C2F26D04FF48060E168A0
:10044000064320468847054604E06C2F1AD04FF437
:10045000807006430DB3A5F14100192802D820355C
:1004600046F400664A462946204626604E46FFF777
:1004700077FE80B101280BD0F61D26F0070000F1B1
:10048000080956E74020E4E78020D8E70020D6E7B7
:1004900006F104094DE7284652E7206ABDE8F09FBF
:1004A000AC2F000030B505460B462A4613F8014B29
:1004B00012F8010B08B1A042F8D01CB1002802D0FC
:1004C0006D1CF1E7284630BD704770477047704794
:1004D00070B5044685690068C10601D5302600E084
:1004E0002026C00707D070BDD4E9012130469047CF
:1004F000206A401C20626D1EF6D570BD70B50446A2
:1005000085690078C00707D170BDD4E9012120209A
:100510009047206A401C20626D1EF6D570BD0968A8
:100520004A0501D540B27047C905FCD500B27047F5
:1005300009684A0501D5C0B27047C905FCD580B22B
:10054000704700002DE9F041064600241068752927
:10055000314616A510D0FFF7E2FF002802DA40422C
:1005600013A507E031688A0701D512A502E0490703
:1005700004D511A5012401E0FFF7DAFF00210A22CA
:1005800006F1240709E0B0FBF2FCB0FBF2F302FB3A
:100590001C00303078541846491C0028F3D12346FB
:1005A0002A463046BDE8F04100F0B3B90000000033
:1005B0002D0000002B0000002000000011680268E0
:1005C000006A530501D508700AE0D30501D50880FB
:1005D00006E0130603D5C217C1E9000200E0086077
:1005E0000120704701694A1C02610878704700B514
:1005F0008FB0CDE901310021059105497944CDE95C
:10060000031011466846FFF789FE0FB000BD0000D9
:10061000E5FFFFFF0A6802F8010B0A60704710B59A
:10062000436913B1AFF3008001E0FFF74DFE0120F5
:1006300010BD127800F124010A7000224A700122D4
:10064000EDE711684FF0FF32E9E700002DE9FF5FA9
:1006500015468A460446DFF8AC80F8440027D8E9FE
:1006600000103E46CDE9001010E03AF816106A4638
:1006700002A800F04BFD411C07D02178890603D564
:10068000E269391891420DD80744761C207880061B
:1006900002D5E069B84205DDAE42E6DB3AF8160065
:1006A0000028E2D1A069C01BA0612046FFF710FF1F
:1006B000D8E90010CDE90010002017E03AF8181032
:1006C0006A4602A800F022FDB0F1FF3F81460BD040
:1006D00000250DF1080B05E0D4E901211BF8050008
:1006E00090476D1C4D45F7D308F10100B04280469C
:1006F000E4DB206A384420622046FFF7FFFEBDE8B5
:10070000FF9F0000922C00002DE9F0418046D21D91
:1007100022F007020025D2E90002F52915A614D01F
:10072000011E72F1000106DA0023D0EB030063EB37
:10073000020211A608E0D8F800108B0701D50FA619
:1007400002E0490701D50EA601251146002408F153
:10075000240704E000F098F830323A55641C50EA5F
:100760000102F7D12B46324621464046BDE8F04112
:1007700000F0CFB8000000002D0000002B000000AA
:100780002000000030B4002100F1240408E002F051
:100790000705D208303542EA4372DB086554491C2C
:1007A00052EA0305F3D10468002310A2250707D5F8
:1007B000A40600D421B1C46901230DA2641EC46142
:1007C00030BC00F0A6B810B5044621461068FFF70B
:1007D000AFFE02462046BDE810400023D2E7D21DFE
:1007E00022F00701D1E90023CCE70000000000005F
:1007F00030000000F0B40D460188090502D5214CF7
:100800007C4402E01F4C7C440E34002100F124069D
:1008100008E002F00F071209E75D42EA03721B09C4
:100820007754491C52EA0307F3D1027800231207D8
:1008300004D5702D06D009B1022311342246F0BC34
:1008400000F067B801231034F8E770B504460D4690
:1008500021461068FFF76CFE024629462046BDE897
:1008600070400023C6E7D21D22F00703D3E900231E
:10087000C0E70368126843F0200303600823C361E4
:100880000023B7E7F42A000030B5B0F10A024FEABE
:10089000900E71F100034EEA817EB0EB0E0061EB29
:1008A00091014FEA101E4EEA017E10EB0E0041EB63
:1008B00011114FEA102E4EEA016E10EB0E0041EBC3
:1008C00011214FEA104E4EEA014E10EB0E0041EBA3
:1008D0001141401841F100014FEAD00040EA417057
:1008E0004FEAD10110EB80054FEA810444EA90748D
:1008F00044EB01046D1944EB0404521BA3414FF077
:10090000000348BF0A3200D530BD401C41F1000150
:1009100030BD2DE9F0470D4699469246044600F158
:1009200024080168880604D5E06921F010012160DF
:1009300000E00120A84201DD471B00E00027A1697B
:100940007A1902EB0900081AA0612078C00602D4C7
:100950002046FFF7BDFD002608E0D4E901211AF882
:1009600006009047206A401C761C20624E45F4DB4E
:100970002078C0060AD52046FFF7AAFD06E0D4E994
:10098000012130209047206A401C2062381EA7F1C8
:100990000107F4DC07E0D4E9012118F805009047CD
:1009A000206A401C2062281EA5F10105F3DC2046C8
:1009B000FFF7A4FD2078000602D50220BDE8F087ED
:1009C0000120FBE770472DE9FF4F0C461E464FF014
:1009D000FF378BB0D2E90001DDF860800A908A46CB
:1009E000C1F30A5505B93D46002108464FF0000005
:1009F000BAF1000F00F4400005DA00EB80004FF47C
:100A0000400101EA50004FEA9059B9F1010F00DDB1
:100A1000B9460A9850EA4A000ED044F61050A5F2A2
:100A2000FF3545432F14B8F1000F1ED07542291E23
:100A30001EDDC9F100021CE0B8F1010F4FF000000B
:100A400001D0302103E0F24305E02154401CB042C4
:100A5000FBDB30460022002121540B99C1F80880AD
:100A6000C1E900200FB0BDE8F08FBD1B6D1CDEE7B3
:100A70004A4600DA694206A800F0DAFB06AB93E8C2
:100A8000070003AB83E8070050460A9900F090FC8A
:100A90008DE80700A0F500501F3800900398002D46
:100AA0000ADD42F21F014A460844002303A90390CD
:100AB000684600F0F9FE09E0A0F500504A461F38EC
:100AC000002303A90390684600F003FF8DE80700A8
:100AD0000004000C03D04FF0FF30410800E0104646
:100AE000B8F1000F03D00022009215461EE0751EDB
:100AF00005D4FFF7C9FE303262556D1EF9D5B346F5
:100B00000122084302D000227F1C04E02078302814
:100B100001D100227F1E002A099784D01DE0112DEB
:100B200007DAFFF7B1FE303262556D1C50EA010260
:100B3000F5D1084302D00098C8B10EE00021681E2C
:100B400005E0235C625C63542254401E491C8142D0
:100B5000F7DBAB46A81B401E0990002004F80B00F1
:100B60000B98099AC0F80880C0E9002B7AE7112693
:100B70004FF0000857E72DE9F04F88460446D21D94
:100B800022F0070191B0D1E90001CDE90A0101F09D
:100B900074FE02460B98C00F01D02D2007E020689C
:100BA000810701D52B2002E0202101EAC000032AA1
:100BB000099001D0072A05DB03464146204600F094
:100BC000F7FA0BE12078800601D5E06900E0062005
:100BD000B8F1650F814606D0B8F1660F18D0B8F1AC
:100BE000670F70D131E00020B9F1110F009001DBE7
:100BF000112301E009F101030AAA01A90CA8FFF7DA
:100C0000E2FEDDE90C70002609F10105834647E0AC
:100C100001204B4600904FF000470AAA01A90CA8FA
:100C2000FFF7D1FEDDE90DB00C995D46002610B945
:100C300009F101000D18B9EB050003D4C0F1FF362E
:100C400009F10105A5EB09002BE0B9F1010F01DA6B
:100C50004FF001090020B9F1110F0090484601DD65
:100C6000112300E003460AAA01A90CA8FFF7ABFE76
:100C7000DDE90C704D4600268346207800070AD433
:100C8000AB4500DA5D4601A8012D04DD411911F8DC
:100C9000011C302907D04F4502DA17F1040F04DA9E
:100CA000012082460FE06D1EEEE7002F02DCED1BF7
:100CB0003E4403E0781CA84200DD7D1CB81B00F117
:100CC000010A4FF000472078000703D4AA4501DB52
:100CD0004FF0FF3A0021B7F1004F0DF143088DF8B6
:100CE000431024D002202B23002F01DA7F422D2332
:100CF0000A21021EA0F1010000DC5FB197FBF1FCAC
:100D000097FBF1F201FB1C7C17460CF1300C08F844
:100D100001CDEEE7A8F1010003702188090501D596
:100D2000452100E06521A0F1010800F8011C0998A7
:100D30000FA9A1EB0807FF1D00B10120411901EB2C
:100D4000EA70A1693844081A401EA0612078C006E4
:100D500002D42046FFF7BCFB099828B1D4E9012151
:100D60009047206A401C20622078C00622D5204689
:100D7000FFF7AEFB1EE0002E04DBB34502DD01A849
:100D8000805D00E03020D4E901219047206A401CBA
:100D90002062761CAAF101005FEA000A0AD100F085
:100DA00003FAC0680168405CD4E901219047206AD9
:100DB000401C2062281EA5F10105DCDC07E0D4E917
:100DC000012118F8010B9047206A401C2062381E50
:100DD000A7F10107F3DC2046FFF790FB032011B0D9
:100DE00041E600002DE9F04F04460D46D21D22F0E9
:100DF000070089B0D0E900974846394601F03DFD2B
:100E00000246F80F01D02D2307E02068810701D5A5
:100E10002B2302E0202101EAC0038DF820300BB122
:100E2000012000E00020032A824601D0072A04DBCB
:100E30002946204600F0BCF93FE12078800601D425
:100E40000D2500E0E569C7F30A560D2D49DA0021AA
:100E50004FEA175B08464FF00000002F00F44000F7
:100E600007DA00EB80004FF4400100EBD07001EA9C
:100E700060008115012901DD4FF0FF3100224FEAAA
:100E8000850CBCF1180F06D31346ACF118004FF0D7
:100E90008052C24003E04FF4801323FA0CF30CF1AC
:100EA0000C0CBCF1200F04D3ACF1200C09FA0CF0AF
:100EB00001E007FA0CF000294FF0004801DD18B9F5
:100EC0000FE00ED140450CD319EB02095F4121B967
:100ED000404502D19F4329EA0209BBEB175F00D0CE
:100EE000761C2088000502D57B48784402E07A48C9
:100EF0007844193808AA302302F80A30037C0AF132
:100F00000101002E0AF1020A53546A4602DC4FF036
:100F1000300101E04FF031014FF001088DF8001071
:100F200002D0A6F2FF3603E059EA470100D06B4E2B
:100F3000002D02DC2178090704D54FF002082E218C
:100F40008DF80110C44600210BE0C7F303433F01B5
:100F5000C35C491C6D1E02F80830052908F1010820
:100F600001DA002DF1DC00210CE000EB1973491CC3
:100F70001B786D1E082902F808304FEA091908F19C
:100F8000010801DA002DF0DC21688B0602D516E09D
:100F9000A8F10108E04505DD02EB080313F8013C68
:100FA000302BF5D0B8F1000F09DD02EB080313F880
:100FB000013C2E2B03D1090701D4A8F10108002D13
:100FC00005DD3E2102F808106D1E08F10108407C85
:100FD000002E02F8080008F1010804DA2D207642FC
:100FE00002F8080002E02B2002F808000A214FF462
:100FF0007A70864208F101080BDB96FBF0F3303380
:1010000002F8083096FBF0F308F1010800FB1366C4
:1010100001E0642E0CDB642096FBF0F3303302F821
:10102000083096FBF0F308F1010800FB136601E0BD
:101030000A2E06DB96FBF1F0303002F8080008F1CA
:10104000010896FBF1F001FB1060303002F8080057
:10105000A16908F1010808EB050202EB0A00081A71
:10106000A0612078C00602D42046FFF731FA216A39
:1010700008AE01EB0A00206204E0D4E9012116F871
:10108000010B9047BAF1010AF7D22078C00602D5C9
:101090002046FFF71DFA6E4609E016F8010B3E28C0
:1010A0000FD0D4E901219047206A401C2062B8F19A
:1010B0000108F2D22046FFF721FA09B00320BDE86B
:1010C000F08F206A2844206203E0D4E90121302017
:1010D00090476D1EEBD3F8E74524000002FCFFFFAC
:1010E00010B5436913B1AFF3008001E0FFF7AEFA2A
:1010F000012010BD128800F1240182840022C284E4
:101100000122EDE711684FF0FF32E9E770B51646AE
:101110000C46054600F040F8036893F801010128E9
:1011200006D0FF2C0FD8185D68B101202C7070BD5F
:10113000D3F807013246214603F207130344284639
:10114000BDE8704018474FF0FF3070BD754600F0A5
:10115000EBF8AE4605006946534620F00700854689
:1011600018B020B5FFF774F8BDE820404FF0000636
:101170004FF000074FF000084FF0000B21F007017F
:10118000AC46ACE8C009ACE8C009ACE8C009ACE8C2
:10119000C0098D467047000010B500F005F8001D2D
:1011A00010BD00BF9D1A0000004870471C040020BD
:1011B0002DE9F0411F46044603260168072A01F481
:1011C000006004DB08B116A505E016A503E008B130
:1011D00015A500E015A521F010002060A069C01E33
:1011E000A0610FB1401EA0612046FFF771F94FB119
:1011F000D4E9012138469047206A401C2062C01C77
:10120000206206E0206AFAE7D4E9012115F8010B13
:101210009047761EF8D22046FFF770F9BDE8F081BE
:101220004E414E006E616E00494E4600696E66008A
:101230002DE9F047814616468AB0354878440DC8F6
:101240008DE80D0032487844801C03AC0DC884E85A
:101250000D0041F69B300844372190FBF1F290FBE2
:10126000F1F5A5F1800501FB12041B3C02D5644297
:10127000012000E00020DFF898A080460027FA4413
:10128000AAF1BE0A0EE0E0070AD03246684607EB34
:10129000470101230AEB810100F01BFB8DE80700E9
:1012A00064107F1C002CEED1194F7F44AE3F19E033
:1012B000E80715D007EB04100DF1180A90E80E00AE
:1012C0008AE80E00C068F04201D1981908903246B1
:1012D000012306A903A800F0FCFA03AB83E807008A
:1012E0006D10641C002DE3D14FF0010332466946B6
:1012F000B8F1000F03A802D000F0D6FA01E000F028
:10130000E8FAC9E90001C9F808200AB0BDE8F08789
:101310008421000010B50446AFF300802046BDE8EC
:101320001040FEF780BF000000487047FC0300201B
:101330004FF0013C50F8042B51F8043B9A4221D164
:10134000A2EB0C03934313EACC1317D150F8042BF0
:1013500051F8043B9A4215D1A2EB0C03934313EAD4
:10136000CC130BD150F8042B51F8043B9A4209D10D
:10137000A2EB0C03934313EACC13DBD04FF0000035
:10138000704700BFD01A01BAB1FA81F101F018011B
:1013900022FA01F0CB40C1F12001DBB2C0B2C01A89
:1013A0002CFA01F3D11A914311EAC311E6D1704727
:1013B0005FEA400C08BF91F0000F4FEA8C234FEA20
:1013C000C12243EA51514FEA1C5018BF00F5F040CA
:1013D0004FEA300018BF41F000415FEA6C5C00F05A
:1013E0002980BCF1FF3F08BF40F080407047130CDC
:1013F00006BF12044FF0100C4FF0000C130E04BF88
:1014000012020CF1080C130F04BF12010CF1040CB2
:10141000930F04BF92000CF1020CD30F04BF5200D3
:101420000CF1010C11464FF00002A0F11F00A0EBDF
:101430000C00704711F0004F08BF704731F00041B9
:101440003FF4D5AF0B0C06BF09044FF0100C4FF062
:10145000000C0B0E04BF09020CF1080C0B0F04BFAB
:1014600009010CF1040C8B0F04BF89000CF1020C74
:10147000CB0F04BF49000CF1010CCCF12003A0EB11
:101480000C0022FA03F302FA0CF241EA030100F124
:101490000100704720F07F4C80EA030023F07F4773
:1014A000ACEB070303F57C5300F0004003F1FF03AE
:1014B0002DE980494FEA154B09B44FEA144325EA58
:1014C0000B4E24EA03480FF2042606EB13274908C3
:1014D0003E785FEA320203FB0667C7F5000707FBA9
:1014E00006F64FEA54374FEAD64606F1020607FBE6
:1014F000066CCCF1005C4FEA1C472CEA074C07FB5A
:1015000006F40CFB06F504EB15464FEA961634BFBD
:1015100000204FF000404FEAD13706FB07FC4FEAAE
:101520001C4C0CFB0BF7D21B03FB0CF761EB070108
:101530000CFB0EF7B0EB074072EB17420CFB08F701
:1015400034BFA2EB0742B2EB074261EB17414FEA0F
:101550000C444FEA910706FB07FC4FEA1C4C0CFBBE
:101560000BF7B0EBC74072EB573203FB0CF734BFFD
:10157000A2EBC742B2EBC74261EB57310CFB0EF74F
:10158000B0EBC70072EB57720CFB08F734BFA2EB4D
:10159000C702B2EBC70261EB5771039F4FEA81614B
:1015A00041EA921104EBCC044FEAD1374FEA826250
:1015B00006FB07FC42EA90124FEA80604FEA1C4C9F
:1015C0000CFB0BF7D21B03FB0CF761EB07010CFBC9
:1015D0000EF7B0EB074072EB17420CFB08F734BF75
:1015E000A2EB0742B2EB074261EB17414FEA8C5581
:1015F0004FEA910704EB9C2406FB07FC4FEA1C4CC6
:101600000CFB0BF7B0EBC74072EB573203FB0CF748
:1016100034BFA2EBC742B2EBC74261EB57310CFBC0
:101620000EF7B0EBC70072EB57720CFB08F734BF34
:10163000A2EBC702B2EBC70261EB577115EB4C2569
:101640004FEA816141EA92114FEA82624FEAD13753
:1016500042EA901206FB07FC44F100044FEA806066
:101660004FEA1C4C0CFB0BF7D21B03FB0CF761EB96
:1016700007010CFB0EF7B0EB074072EB17420CFBB7
:1016800008F734BFA2EB0742B2EB074261EB174108
:1016900015EB1C154FEA813141EA92414FEA823243
:1016A00042EA90424FEA80304FEA0C7644F100045F
:1016B00048EA03434EEA0B484FF0000EB2EB080C29
:1016C00071EB030724BF624639464EEB0E0E4FF016
:1016D000000B0018524149414BEB0B0BB2EB080CCD
:1016E00071EB03077BF1000B24BF624639464EEBDA
:1016F0000E0E4FF0000B0018524149414BEB0B0B03
:10170000B2EB080C71EB03077BF1000B24BF6246C0
:1017100039464EEB0E0E51EA020718BF46F001069D
:1017200016EB0E7655F1000254F1000103D5BDE829
:101730008901BDE80088BDE88901BDE80048B61907
:10174000524141EB0101A3F10103704780807F7E8C
:101750007D7C7B7A79787776767574737271717027
:101760006F6E6E6D6C6C6B6A6A69686867666665D9
:101770006464636362616160605F5F5E5E5D5D5C67
:101780005C5B5B5A5A5959585857575656555555D8
:101790005454535352525251515050504F4F4F4E38
:1017A0004E4D4D4D4C4C4C4B4B4B4A4A4A49494986
:1017B00048484847474747464646454545444444C8
:1017C000444343434342424242414141002B9C46F1
:1017D00030D477002BD01CB54FEA370703B44FF055
:1017E00010004FF01001BAF1000F06D0BCF1000F4D
:1017F000DCBF40F0080040F008014FF000000FBCD3
:10180000BDE810400BF1010BBBF1010F08BF5FEA0F
:10181000170722BF12F1010211F101014FF000413F
:1018200043F1000300F0004043EA00007047F9D3A1
:101830005708D0E746EA064613F1400F4FEA16462E
:101840001FDD13F1200FDFBF16430A4600212033AE
:101850005B42BED0C3F1200746EA064602FA07F70C
:101860004FEA164646EA0706C3F1200722FA03F2BA
:1018700001FA07F721FA03F14FF0000342EA0702E9
:10188000A7E746EA020646EA06464FEA164646EA51
:101890000106BCBF46EA0646360C4FF000034FF087
:1018A00000024FF0000194E72DE9804C9A469346E0
:1018B00070B491E8380007C831EA400C48BF34EAF8
:1018C000430C03D5FFF7E6FDFFF780FFF0BCBDE852
:1018D000008C2DE9804C9A46934670B491E838000C
:1018E00007C810F0804F08BF13F0804F03D100F0FD
:1018F00005F8FFF76BFFF0BCBDE8008C20F07F47D8
:1019000080EA030023F07F4C07EB0C03A3F57C5324
:1019100000F00040A3F1FE0392F0000F00F0B3804E
:1019200095F0000F00F077802DE901494FEA114052
:101930004FEA144621EA004800FB06FC24EA064769
:1019400008FB06F607FB08F800FB07F718EB06484C
:101950004CEB164C4FEA124B18EB07484FEA154672
:101960004CEB174022EA0B4E0BFB06FC25EA064720
:101970000EFB06F607FB0EFE0BFB07F71EEB064EF3
:101980004CEB164C4FF000061EEB074E4CEB174B82
:1019900018EB0B0840F1000018EB0E0B58EB000899
:1019A00040F100008F1A4FF000013CBFC943661B95
:1019B00014BFB5EB040C00213CBFC943F61B4FEA32
:1019C00017444EEA8E0E27EA04454FEA1C4704FBF3
:1019D00007622CEA074C05FB07F70CFB05F604FB36
:1019E0000CFC16EB074642EB174216EB0C4642EB9B
:1019F0001C421BEB060658EB0202414146EA9E06DA
:101A000001D5BDE80189B619524141EB0101A3F1AD
:101A10000103BDE801894FEA14454FEA114724EA62
:101A2000054621EA074C05FB07F406FB07F70CFB0C
:101A300006F105FB0CFC11EB074144EB17444FEAA0
:101A4000124711EB0C4144EB1C4422EA074C05FB06
:101A500007F206FB07F70CFB06F605FB0CFC16EB82
:101A6000074642EB174216EB0C4642EB1C456A1840
:101A700054F1000148BF7047B619524141EB0101D2
:101A8000A3F10103704795F0000F37D04FEA1142E0
:101A90004FEA144721EA024624EA074C02FB07F109
:101AA00006FB07F70CFB06F402FB0CFC14EB0744E7
:101AB00041EB17414FEA154714EB0C4441EB1C4135
:101AC00025EA074C02FB07F506FB07F70CFB06F6B9
:101AD00002FB0CFC16EB074645EB174516EB0C46D4
:101AE00045EB1C42121951F1000148BF7047B6196D
:101AF000524141EB0101A3F1010370474FEA144544
:101B00004FEA114724EA054621EA074C05FB07F195
:101B100006FB07F70CFB06F24FF0000605FB0CFC7A
:101B200012EB074241EB174112EB0C4251EB1C4107
:101B300048BF7047921841EB0101A3F101037047C0
:101B400000BFFEE77047000070B500F0D7FE00F060
:101B5000A5FF00F06DFF4FF4FA6000F043FF002492
:101B600036E0002504EBC40101EB04111A4A02EB34
:101B7000410001F029F800F00BF904EBC40000EB80
:101B80000410154901EB400201231946184600F0E4
:101B9000BBFA19E000F0D6FFB0B10421022000F03A
:101BA0000CF903220D49022000F080FA0B4800F0E6
:101BB00081FE054602232A460121042000F040FA56
:101BC0004FF4FA7000F00EFF002DE3D0601CC4B299
:101BD000052CC6DB70BD0000380200203800002054
:101BE0002DE9F041024600250026002000230024B4
:101BF000002791F803C00CF00F0591F803C00CF01A
:101C0000100CBCF1000F03D091F802C04CEA05059E
:101C100091F800C0BCF1000F31D0146800202BE017
:101C20004FF0010C0CFA00F3B1F800C00CEA030607
:101C30009E4220D183004FF00F0C0CFA03F7BC43F7
:101C400005FA03FC4CEA040491F803C0BCF1280F28
:101C500006D14FF0010C0CFA00FCC2F814C00AE0E7
:101C600091F803C0BCF1480F05D14FF0010C0CFAFC
:101C700000FCC2F810C0401C0828D1D31460B1F891
:101C800000C0BCF1FF0F34DD546800202EE000F1ED
:101C9000080C4FF0010808FA0CF3B1F800C00CEA88
:101CA00003069E4221D183004FF00F0C0CFA03F77C
:101CB000BC4305FA03FC4CEA040491F803C0BCF1F0
:101CC000280F05D100F1080C08FA0CF8C2F81480AE
:101CD00091F803C0BCF1480F07D100F1080C4FF098
:101CE000010808FA0CF8C2F81080401C0828CED36E
:101CF0005460BDE8F0810AB1016100E041617047C4
:101D000000BFFEE700BFFEE77047000070B500218E
:101D100000230F22C47804B3154C246804F4E06453
:101D2000C4F5E064210AC1F10403CA40447804FA0E
:101D300003F184781440214309010E4C0678A15523
:101D4000047804F01F050124AC4005786D11AD0046
:101D500005F1E025C5F8004109E0047804F01F050D
:101D60000124AC40044D0678761145F8264070BD3C
:101D70000CED00E000E400E080E100E002490143F6
:101D8000024A1160704700000000FA050CED00E007
:101D900070B500240EE00021204600F006F9002571
:101DA00004E0002000F0F6F9681CC5B2802DF8DBD5
:101DB000601CC4B2082CEEDB70BD2DE9F041064674
:101DC0000F4634460CE0012506E020222946204635
:101DD00000F0FCF8681CC5B2102DF6DD601CC4B222
:101DE000BC42F0DDBDE8F08108B50121082000F01B
:101DF000F3F914208DF8030003208DF802004FF44E
:101E00008070ADF8000069460A48FFF7E9FE4FF41C
:101E10000070ADF8000069460648FFF7E1FE0122B8
:101E200011020448FFF767FF012251020148FFF742
:101E300062FF08BD000C014070B50546002415E0A6
:101E40008020204100EA05024FF400710E48FFF7A0
:101E500052FF012211020C48FFF74DFF00224FF400
:101E600080710948FFF747FF601CC4B2082CE7DB0C
:101E7000012211020448FFF73EFF00224FF4807157
:101E80000148FFF738FF70BD000C014010B501227A
:101E900051020A48FFF72FFF012211020748FFF7FE
:101EA0002AFF00224FF400710448FFF724FF0022AC
:101EB0004FF480710148FFF71EFF10BD000C014078
:101EC00010B500224FF400710648FFF714FF0122FD
:101ED00011020448FFF70FFF012251020148FFF7EA
:101EE0000AFF10BD000C014070B5002406E000257B
:101EF00000E06D1CB5F57A7FFBD3641CB4F57A7FE6
:101F0000F5D3FFF771FFAE2000F034F9D52000F0D3
:101F100031F9802000F02EF9A82000F02BF93F20A5
:101F200000F028F9D32000F025F9002000F022F974
:101F3000402000F01FF9A12000F01CF9C82000F09B
:101F400019F9DA2000F016F9122000F013F98120B7
:101F500000F010F9CF2000F00DF9D92000F00AF9B7
:101F6000F12000F007F9DB2000F004F9302000F048
:101F700001F9A42000F0FEF8A62000F0FBF88D2067
:101F800000F0F8F8142000F0F5F8AF2000F0F2F8B7
:101F9000FFF7FEFE70BD10B50246012000E0504381
:101FA0000B1EA1F10101FAD110BD70B505460C461A
:101FB00045F0B00000F0DEF8102141EA141000F006
:101FC000D9F804F00F0000F0D5F870BD2DE9F0410C
:101FD00005460E461746721ED206110E6A1E52069E
:101FE000100EFFF7E2FF002409E0A7F12001134AD9
:101FF00002EB0111085D00F0CDF8601CC4B2082CA2
:10200000F3DB721ED206110E6A1E012303EB42029D
:10201000D0B2FFF7CAFF00240BE0A7F12001074A66
:1020200002EB011204F10801505C00F0B3F8601CEF
:10203000C4B2082CF1DBBDE8F0810000742C00086C
:102040002DE9F04780460E4617461D46002415E050
:10205000281B411E0A20FFF79EFFB7FBF0F00A2164
:10206000B0FBF1F201FB120000F130093019C1B2EE
:102070004A464046FFF7AAFF601CC4B2AC42E7DB09
:10208000BDE8F0872DE9F04107460E4615460024CD
:1020900007E02A5D3019C1B23846FFF797FF601C90
:1020A000C4B2285D0028F4D1BDE8F0812DE9F041EB
:1020B00006460C46174600254FF001081EE0605DFD
:1020C0000D281AD0605D0A2817D0625D404608F1DD
:1020D0000108C1B23046FFF779FFB8F1110F06DBF6
:1020E000BE4204DA701CC6B24FF0010805E0B8F138
:1020F000110F02DBBE4200D103E06D1C605D0028C1
:10210000DDD100BFBDE8F0812DE9F04706460F465E
:10211000144699464FF00008002525E0605D0D2823
:102120000DD0605D0A280AD0625D07EB0800C1B2DD
:102130003046FFF74BFF08F1010000F0FF0807EB06
:102140000800112807D14E4505DA701CC6B20127D8
:102150004FF0000806E007EB0800112802D14E45B9
:1021600000D104E0681CC5B2605D0028D6D100BF74
:10217000BDE8F08710B50446FFF788FE7820FFF72A
:102180005BFE0020FFF758FE2046FFF755FEFFF7E5
:1021900097FE10BD10B50446FFF778FE7820FFF7D4
:1021A0004BFE4020FFF748FE2046FFF745FEFFF7B5
:1021B00087FE10BD7047000029B1064AD26902436C
:1021C000044BDA6104E0034AD2698243014BDA61CD
:1021D000704700000010024029B1064A926902438C
:1021E000044B9A6104E0034A92698243014B9A616D
:1021F000704700000010024030B50021002200248A
:1022000000232D4D6D6805F00C0121B1042905D086
:10221000082923D105E0294D056022E0274D0560FE
:102220001FE0254D6D6805F47012234D6D6805F4AF
:102230008034022505EB92421CB9214D55430560BF
:102240000BE01D4D6D6805F400351DB11C4D554367
:10225000056002E0194D5543056002E0174D056029
:1022600000BF00BF144D6D6805F0F0010909154D60
:102270006B5C0568DD4045600F4D6D6805F4E061FD
:10228000090A104D6B5C4568DD4085600A4D6D683C
:1022900005F46051C90A0B4D6B5C4568DD40C560B3
:1022A000054D6D6805F44041890B074D6B5CC568B1
:1022B000B5FBF3F5056130BD0010024000127A0055
:1022C00000093D002200002032000020704710B5B8
:1022D00000F002F810BD00000CB500200190009045
:1022E0003348006840F480303149086000BF30480E
:1022F000006800F4003000900198401C01900098A4
:1023000018B90198B0F5A06FF1D12948006800F420
:10231000003010B10120009001E0002000900098F2
:10232000012843D12348006840F01000214908608B
:102330000846006820F0030008600846006840F086
:10234000020008601A484068194948600846406819
:1023500048600846406840F480604860084640682D
:1023600020F47C1048600846406840F4E81048605B
:102370000846006840F08070086000BF0C480068A4
:1023800000F000700028F9D00948406820F00300F0
:10239000074948600846406840F00200486000BFB6
:1023A0000348406800F00C000828F9D10CBD00007B
:1023B0000010024000200240042808D14FF0E02124
:1023C000096941F004014FF0E022116107E04FF08C
:1023D000E021096921F004014FF0E022116170470A
:1023E0007047000010B51348006840F00100114923
:1023F000086008464068104908400E494860084691
:1024000000680E4908400B4908600846006820F43F
:10241000802008600846406820F4FE0048604FF4C1
:102420001F008860FFF753FF4FF000600449086009
:1024300010BD0000001002400000FFF8FFFFF6FE94
:1024400008ED00E010B50121880700F037F8C8B1A9
:1024500000200D490D4A127888540C49087001205B
:102460000B4908700021800700F01CF800214FF094
:10247000804000F03DF800200649087001218807DF
:1024800000F00DF810BD00003800002015000020FD
:102490001700002016000020CA4302827047CA437A
:1024A0000282704721B1028842F00102028004E0FA
:1024B00002884FF6FE731A400280704730B502461C
:1024C000002000230024158A05EA0103958905EA06
:1024D000010413B10CB1012000E0002030BD1AB19D
:1024E00083890B43838102E083898B438381704717
:1024F00081847047002202881D4B98420ED01D4BEC
:1025000098420BD0B0F1804F08D01B4B984205D0B9
:102510001A4B984202D01A4B984204D14FF68F734F
:102520001A404B881A43174B984207D0164B9842D3
:1025300004D04FF6FF431A40CB881A4302808B88A1
:1025400083850B8803850A4B98420BD0094B984230
:1025500008D00E4B984205D00D4B984202D00D4B3F
:10256000984201D10B7A03860123838270470000D1
:10257000002C0140003401400004004000080040ED
:10258000000C0040001000400014004000400140DA
:10259000004401400048014010B540F225511D485B
:1025A00000F0A4F810B31B4800F05CF9C4B21A485C
:1025B000008800F40040C8B91748008800F4804043
:1025C00060B10A2C03D000201349088020E0124893
:1025D000008840F400401049088019E00D2C06D115
:1025E0000D48008840F480400B49088010E00A48FC
:1025F0000088C0F30D0009490C5407480088401CAE
:102600000549088008460088C72801DD00200880A9
:1026100010BD0000003801402000002032030020DF
:1026200010B540F22551184800F060F858B316482C
:1026300000F018F915490870084600781449154A41
:102640001278885413480078FF2804DA114800787B
:10265000401C1049087000214FF08040FFF748FFF0
:102660000D48007850B901218807FFF718FF0121B4
:102670008807FFF717FF01200749087040F225512E
:10268000014800F00BF810BD004800401400002085
:1026900038000020150000201600002010B5002290
:1026A000002340F66A14A14200D100BF0A1201249F
:1026B0009440A3B2DC43048010BD21B1828942F46E
:1026C0000052828104E082894DF6FF731A408281B4
:1026D000704702460020B1F5007F00D100BF13888B
:1026E0000B400BB1012000E00020704770B502469E
:1026F000002400230025002040F66A16B14200D1D4
:1027000000BFC1F3421501F01F03012606FA03F3CF
:10271000012D02D19689334006E0022D02D1168A9E
:10272000334001E0968A33400C12012606FA04F485
:102730001688344013B10CB1012000E0002070BDB8
:10274000F0B50346002400260025002040F66A1755
:10275000B94200D100BF1846C1F3421401F01F0670
:10276000012707FA06F5012C01D10C3004E0022CF8
:1027700001D1103000E014301AB107682F43076010
:1027800002E00768AF430760F0BD00002DE9F047A5
:1027900086B005460E460024A24600BFA14600278B
:1027A000B08900B100BF2F462C8A4CF6FF70044060
:1027B000F08804432C82AC894EF6F3100440B088B4
:1027C00031890843718908430443AC81AC8A4FF6D0
:1027D000FF400440B0890443AC8201A8FFF70CFD20
:1027E0001F48874202D1DDF810A001E0DDF80CA0FF
:1027F000A88900F4004040B10AEBCA0000EB0A10BF
:1028000031684900B0FBF1F807E00AEBCA0000EBC1
:102810000A1031688900B0FBF1F86420B8FBF0F0D1
:1028200004012009642101FB1089A88900F40040FB
:1028300040B1322000EBC900B0FBF1F000F007001E
:10284000044308E0322000EB09106421B0FBF1F0F2
:1028500000F00F0004432C8106B0BDE8F0870000B3
:102860000038014001468888C0F308007047C1F372
:1028700008028280704700BFFEE7490050EAC1208D
:1028800018BF04204A0D18BF40F0010040F2FF724B
:10289000B2EB515F08BF40F00200012808BF0520DD
:1028A000704730380A2801D2012070470020704755
:1028B00000BF704770B5044608A12046FDF7F2FD41
:1028C000054608A12046FDF7EDFD06460DB10120A5
:1028D00070BD0EB10020FBE70020F9E70D0A4F4B59
:1028E0000D0A00000D0A4552524F520D0A00000019
:1028F00000200149087070473800002010B50EA173
:102900000F48FDF7CBFC0FA10D483230FDF7C6FC98
:102910000EA10B486430FDF7C1FC104B104A11A109
:1029200007489630FDF7BAFC144B154A15A1044828
:10293000C830FDF7B3FC10BD41540D0A0000000083
:1029400038020020415445300D0A000041542B4309
:10295000574D4F44453D310D0A00000082320008BA
:102960006432000841542B43574A41503D2225739D
:10297000222C222573220D0A00000000BE3200081E
:10298000A032000841542B41544B434C4453544112
:102990003D222573222C222573220D0A00000000FF
:1029A00010B56FF00400FFF707FD0A4800680A49F8
:1029B000B0FBF1F0094908700846007800EB4001CF
:1029C000C1EBC0104FF6FF7101EAC0000449088056
:1029D00010BD00000000002000127A001800002046
:1029E0001A0000200146114A12884A434FF0E023A2
:1029F0005A6100229A611A46126942F001021A6174
:102A000000BF4FF0E022106900F001021AB100F49B
:102A10008032002AF5D04FF0E022126922F0010244
:102A20004FF0E0231A6100229A6170471A000020DB
:102A30001FB501210846FFF7BFFB0020ADF80A00D3
:102A4000ADF806006320ADF8080041F61F40ADF870
:102A5000040000208DF80C0001A94FF08040FFF722
:102A600049FD01218807FFF717FD00214FF0804045
:102A7000FFF718FD012211469007FFF730FD1C20DB
:102A80008DF8000001208DF803008DF80100002072
:102A90008DF802006846FFF739F91FBD00B587B011
:102AA00001210820FFF798FB01218804FFF784FB30
:102AB0004FF48060ADF8180018208DF81B0003203B
:102AC0008DF81A0006A91D48FFF78AF84FF4006038
:102AD000ADF8180048208DF81B0006A91748FFF72D
:102AE0007FF84FF4E13002900020ADF80C00ADF813
:102AF0000E00ADF81000ADF814000C20ADF8120077
:102B000002A90F48FFF742FE01210D48FFF7D5FD4E
:102B1000012240F225510A48FFF712FE27208DF8C6
:102B2000040000208DF805008DF8060001208DF8C6
:102B3000070001A8FFF7EAF807B000BD000C01404C
:102B4000004800400448007820B100200249087085
:102B5000012070470020FCE7170000200048704764
:102B600038000020FFF71CFFFFF7BEF9FFF710F950
:102B70004FF4A060FFF702F9FEF7E6FF40F6C4103D
:102B8000FFF730FFFFF7B4FE0BA201210846FFF765
:102B900079FA4FF47A70FFF725FF0CE0FFF7D2FFC8
:102BA00048B1FFF7F5F8FFF7D9FF044604222146A4
:102BB0000120FFF77BFAF1E7526563656976696E7C
:102BC000672E2E2E000000000FB438B505A8009027
:102BD0000E48009A0499FDF74FFB00200090002456
:102BE0000CE000BF80210A48FFF773FD0028F9D0F0
:102BF0000648015D0648FFF73AFE641C0348005D85
:102C00000028EED138BC5DF814FB0000380100202C
:102C10000048004010B500290AD00878002807D0E5
:102C200005487844FEF784FB002801D0002010BD41
:102C30000248784410BD0000DA070000D207000007
:102C400010B500290AD00878002807D00548784434
:102C5000FEF76EFB002801D0002010BD024878442A
:102C600010BD0000CA070000C2070000FDF783BFC7
:102C7000FEF7B8B8000000000000000000000000EF
:102C800000000000000000F8000000000000003319
:102C90003000000000100C06100C060000000000C0
:102CA0000000000040C07840C0784000043F0404A9
:102CB0003F040400007088FC08300000001820FF6A
:102CC000211E0000F008F000E018000000211C03A5
:102CD0001E211E0000F00888700000001E21232421
:102CE0001927211010160E0000000000000000003F
:102CF00000000000000000E01804020000000007CF
:102D00001820400000020418E000000000402018D5
:102D100007000000404080F0804040000202010FA8
:102D200001020200000000F0000000000101011F8C
:102D300001010100000000000000000080B07000F0
:102D40000000000000000000000000000001010180
:102D5000010101010000000000000000003030000F
:102D600000000000000000008060180400601806E9
:102D70000100000000E010080810E000000F102023
:102D800020100F00001010F8000000000020203F6D
:102D900020200000007008080888700000302824F7
:102DA0002221300000300888884830000018202098
:102DB00020110E000000C02010F8000000070424BD
:102DC000243F240000F80888880808000019212002
:102DD00020110E0000E0108888180000000F11205C
:102DE00020110E0000380808C83808000000003F15
:102DF000000000000070880808887000001C222174
:102E000021221C0000E010080810E0000000312220
:102E100022110F00000000C0C000000000000030C0
:102E20003000000000000080000000000000806012
:102E30000000000000008040201008000001020493
:102E4000081020004040404040404000040404047A
:102E50000404040000081020408000000020100836
:102E600004020100007048080808F000000000306B
:102E700036010000C030C828E810E00007182724F9
:102E800023140B000000C038E0000000203C2302A7
:102E90000227382008F8888888700000203F20200A
:102EA00020110E00C030080808083800071820203C
:102EB0002010080008F808080810E000203F202033
:102EC00020100F0008F88888E8081000203F202014
:102ED0002320180008F88888E8081000203F200008
:102EE00003000000C0300808083800000718202040
:102EF000221E020008F808000008F808203F2101FF
:102F000001213F20000808F8080800000020203FA9
:102F10002020000000000808F8080800C080808019
:102F20007F00000008F888C028180800203F200112
:102F30002638200008F8080000000000203F20206C
:102F40002020300008F8F800F8F80800203F003F83
:102F5000003F200008F830C00008F808203F20009B
:102F600007183F00E01008080810E0000F102020AC
:102F700020100F0008F808080808F000203F210181
:102F800001010000E01008080810E0000F182424D8
:102F900038504F0008F8888888887000203F20004B
:102FA000030C302000708808080838000038202101
:102FB00021221C00180808F8080818000000203F0B
:102FC0002000000008F808000008F808001F202072
:102FD00020201F000878880000C838080000073843
:102FE0000E010000F80800F80008F800033C070094
:102FF000073C0300081868808068180820302C03FC
:10300000032C30200838C800C83808000000203FD2
:103010002000000010080808C838080020382621C1
:1030200020201800000000FE020202000000007FC5
:1030300040404000000C30C00000000000000001D3
:103040000638C00000020202FE00000000404040BE
:103050007F000000000004020202040000000000E3
:103060000000000000000000000000008080808060
:103070008080808000020204000000000000000048
:1030800000000000000080808080000000192422E1
:1030900022223F2008F8008080000000003F11201D
:1030A00020110E000000008080800000000E112022
:1030B00020201100000000808088F800000E112000
:1030C00020103F200000808080800000001F22220E
:1030D00022221300008080F0888888180020203F7A
:1030E000202000000000808080808000006B94948D
:1030F0009493600008F8008080800000203F210049
:1031000000203F2000809898000000000020203F11
:1031100020200000000000809898000000C08080FF
:10312000807F000008F8000080808000203F24029B
:103130002D302000000808F8000000000020203F8B
:10314000202000008080808080808000203F200040
:103150003F20003F8080008080800000203F2100D1
:1031600000203F200000808080800000001F202081
:1031700020201F00808000808000000080FFA120B0
:1031800020110E000000008080808000000E1120C1
:1031900020A0FF80808080008080800020203F2150
:1031A0002000010000008080808080000033242403
:1031B00024241900008080E0808000000000001FAF
:1031C000202000008080000000808000001F202060
:1031D00020103F20808080000080808000010E3021
:1031E0000806010080800080008080800F300C0382
:1031F0000C300F0000808000808080000020312E85
:103200000E312000808080000080808080818E7060
:103210001806010000808080808080000021302C12
:103220002221300000000000807C0202000000002B
:10323000003F404000000000FF00000000000000D0
:10324000FF0000000002027C800000000040403FC0
:10325000000000000006010102020404000000005A
:10326000000000005869616F6D6920313253000021
:10327000000000000000000000000000000000004E
:103280000000313233343536373677000000000025
:10329000000000000000000000000000000000002E
:1032A00031343233313736383031333535393239DC
:1032B00038383533000000000000000000003132D3
:1032C00033343536373600000000000000000000BF
:1032D00000000000000000000000000004000008E2
:1032E00000000000000000020001000010000000CB
:1032F0000000000000000000303132333435363732
:103300003839414243444546403058003031323329
:103310003435363738396162636465664030780029
:10332000303132333435363738396162636465663B
:1033300078700030313233343536373839414243D2
:10334000444546585000000002400000000000A024
:103350000000000005400000000000C80000000060
:103360000C4000000000409C0000000019400000DC
:103370000020BCBE0000000034400000BFC91B8E0E
:1033800000000004B5400000504BCFD06607E2CFEC
:10339000010000006C4100003E8251AADFEEA7341C
:1033A00001000000D9420000DCB5A0E23A301F97CE
:1033B000FFFFFFFFB4450000FD25A0C8E9A3C14FF2
:1033C000FFFFFFFFFF3F0000000000800000000043
:1033D000FF3F0000000000800000000028350008CA
:1033E00000000020380000002801000860350008B7
:1033F00038000020280A0000440100081C000000DA
:1034000043000000F8FFFFFF0C0000000E0000006A
:103410000F0000002E00000010010000430000001B
:10342000F8FFFFFF004040404040404040404141E5
:103430004141414040404040404040404040404089
:103440004040404040050202020202020202020223
:103450000202020202202020202020202020200220
:1034600002020202020290909090909010101010B0
:10347000101010101010101010101010101010104C
:1034800002020202020288888888888808080808E0
:1034900008080808080808080808080808080808AC
:1034A00002020202400000000000000000000000D4
:1034B000000000000000000000000000000000000C
:1034C00000000000000000000000000000000000FC
:1034D00000000000000000000000000000000000EC
:1034E00000000000000000000000000000000000DC
:1034F00000000000000000000000000000000000CC
:1035000000000000000000000000000000000000BB
:1035100000000000000000000000000000000000AB
:10352000000000000000000000A24A0400000000AB
:103530000000000001020304060708090000000063
:103540000000000000000000000000000000010278
:103550000304010203040607080902040608000028
:04000005080000ED02
:00000001FF
